:0600000024C0FECFFDCF7D
:10000600FCCFFBCFFACFF9CFF8CFF7CFF6CFF5CFAE
:10001600F4CFF3CFF2CFF1CFF0CFEFCFEECFEDCFDE
:1000260057454C434F4D574520544F00454D5220A0
:10003600434C554200000C006001260009006C018B
:1000460032000000F894EE27ECBBF1E0FBBFEBBFFB
:10005600E5BF8DE0A2E0BB27ED938A95E9F780E046
:1000660094E0A0E6ED930197E9F7ECE3F0E08591E3
:100076009591009761F0A591B59105901590BF01F6
:10008600F00105900D920197E1F7FB01F0CFEFE546
:10009600EDBFE4E0EEBFC0E6D1E02AC01A931A2F06
:1000A600E1E03CD0E0E005C01A931A2FE5E036D037
:1000B600E4E0E2BBAAE0B0E039D01991089533D06C
:1000C6008D01D801EC91E03029F0AC91EDDF0F5FA6
:1000D6001F4FF7CF099119910895A8E3DFDFA1E03B
:1000E600DDDFAEE0DBDFA6E0D9DFA2E0D7DF0895F3
:1000F600EFEFE7BBE7E0E1BBF0DFA3E8CFDFA0E689
:10010600B1E0DDDFA4ECCADFACE6B1E0D8DFA4E6FF
:10011600B0E00CD0A1E0C2DFF0CFFFCFE2BB18BB4E
:10012600AAE0B0E003C01A930A930895109639F036
:10013600A89580EA9FE00197F1F71197C9F708950E
:00000001FF
